:020000040800F2
:1000000000040020250100088D0100088D01000872
:100010008D0100088D0100088D010008000000001E
:100020000000000000000000000000008D0100083A
:100030008D010008000000008D0100088D010008FE
:100040008D0100088D0100088D0100088D01000858
:100050008D0100088D0100088D0100088D01000848
:100060008D0100088D0100088D0100088D01000838
:100070008D0100088D0100088D0100088D01000828
:100080008D0100088D0100088D01000800000000AE
:100090000000000000000000000000008D010008CA
:1000A0008D0100088D0100088D0100088D010008F8
:1000B0008D0100088D010008000000008D0100087E
:1000C0008D01000800000000000000008D01000804
:1000D000000000008D0100088D01000800000000F4
:1000E0008D0100088D0100088D010008000000004E
:1000F0000000000000000000000000000000000000
:1001000000000000000000000000000000000000EF
:1001100000000000000000008D0100088D010008B3
:100120005FF808F180B582B000AF134B7B60134BD2
:100130003B600BE07B681A683B681A603B6803F120
:1001400004033B607B6803F104037B603A680C4B5B
:100150009A42EFD30B480C494FF000028842B8BFD7
:1001600040F8042BFADB00F015F800F0BFF807F1B7
:100170000807BD4680BD00BFF40200080000002053
:1001800000000020000000200000002080B400AF2C
:10019000FEE700BF80B500AF174B174A126842F068
:1001A00001021A60144A144B5968144B01EA030304
:1001B0005360114A104B1B6823F0847323F480337F
:1001C00013600D4B0C4A126822F480221A600A4B0D
:1001D000094A526822F4FE025A60074B4FF41F028C
:1001E0009A60054B4FF00002DA6200F00BF8044B06
:1001F0004FF000629A6080BD001002400000FFF8DE
:1002000000ED00E080B500AF00F002F880BD00BF57
:1002100080B483B000AF4FF000037B604FF0000369
:100220003B60314B304A126842F480321A602E4BE8
:100230001B6803F400333B607B6803F101037B60C0
:100240003B68002B03D17B68B3F5A06FEFD1264B41
:100250001B6803F40033002B03D04FF001033B6015
:1002600002E04FF000033B603B68012B37D11E4B8F
:100270001D4A52685A601C4B1B4A52685A601A4BFE
:10028000194A52685A60184B174A526822F47C1275
:100290005A60154B144A526842F498125A60124B35
:1002A000114A126842F080721A6000BF0E4B1B6840
:1002B00003F00073002BF9D00B4B0B4A526822F06D
:1002C00003025A60084B084A526842F002025A6020
:1002D00000BF054B5B6803F00C03082BF9D107F155
:1002E0000C07BD4680BC70470010024080B400AFD0
:0402F000FEE700BF66
:0400000508000000EF
:00000001FF
